:1000000026EF01F02A2A2A2A2A2A2A2A2A2A2A2AF2
:100010002A2A2A2A2A2A2A2A2A2A2A2A2A2A2A2A40
:100020002A2A2A2A2A2A0000202052533233322038
:1000300064656D6F207769746820434353204320C3
:10004000636F6D70696C6572202000002A2A2A2A6D
:100050002A2A2A2A2A2A2A2A2A2A2A2A2A2A2A2A00
:100060002A2A2A2A2A2A2A2A2A2A2A2A2A2A000044
:10007000446563696D616C207661726961626C656B
:10008000206F75747075743A2025640A0D004865F8
:1000900078207661726961626C65206F7574707525
:1000A000743A2025780A0D0054797065206F6E200F
:1000B000746865206B6579626F6172642C205049A9
:1000C000432077696C6C206563686F206261636BA5
:1000D0002074686520636861726163746572733A45
:1000E00000000900F5520DE0F6CF47F0F7CF48F0D9
:1000F000F5509EA8FED7AD6E47C0F6FF48C0F7FF8B
:10010000F0D712009EA8FED7AD6E12000900F6CF00
:1001100048F0F7CF49F0F5509EA8FED7AD6E48C025
:10012000F6FF49C0F7FF472EF1D712004E50016A83
:100130004D5C03E24DC000F00CD0006A080E4F6E1B
:100140004D3600364E50005CD8B0006E01364F2E52
:10015000F7D71200200E48A8300E496E47C000F0B5
:1001600047AE08D0001E002A00C047F02D0E496E91
:10017000488E4880015047C04DF0640E4E6ED6DF69
:1001800000C047F0300E01244A6E47C04DF00A0E01
:100190004E6ECCDF300E00244C6E300E01244B6EC0
:1001A00049C000F0300E4A5C04E0488248BE4884F2
:1001B00012D049C04AF0200E496E300E4B5C04E06C
:1001C000488048BE488207D0D8A4488004E14AC08D
:1001D0004BF0200E4A6E48B405D048B207D048B064
:1001E00009D00CD049509EA8FED7AD6E4A509EA8AB
:1001F000FED7AD6E4B509EA8FED7AD6E4C509EA85C
:10020000FED7AD6E75EF01F048BE10D00F0E006E38
:10021000473800160A0E005C03E2300E002602D0BA
:100220004850002600509EA8FED7AD6E0F0E471610
:100230000A0E475C02E2300E02D0489E4850472624
:1002400047509EA8FED7AD6E89EF01F0F86AD09EA8
:10025000B886AD0EAF6E000EB06EA60EAC6E900EF0
:10026000AB6E00000000C150C00B0F09C16E070E3D
:10027000B46EC290939A8A8A550E056E040EF66E7D
:10028000000EF76E2EDF0D0E9EA8FED7AD6E0A0E85
:100290009EA8FED7AD6E280EF66E000EF76E21DF1B
:1002A0000D0E9EA8FED7AD6E0A0E9EA8FED7AD6EAF
:1002B0004C0EF66E000EF76E14DF0D0E9EA8FED7E4
:1002C000AD6E0A0E9EA8FED7AD6E0A0E1BDF0D0E98
:1002D00019DF700EF66E000EF76E190E476E16DF00
:1002E00005C047F0180E486E35D70A0E9EA8FED7F7
:1002F000AD6E0D0E9EA8FED7AD6E8E0EF66E000E84
:10030000F76E150E476E02DF05C047F0570E486EB8
:100310007BD70A0E9EA8FED7AD6E0D0E9EA8FED707
:10032000AD6EA80EF66E000EF76EDBDE0D0E9EA80B
:0E033000FED7AD6E0A0E9EA8FED7AD6E03007E
:020000040030CA
:0E00000000C6180E008785000FC00FE00F40ED
:00000001FF
;PIC18F2520
;CRC=5CB2  CREATED="21-oct-16 15:09"
