:1000000002EF00F0F86AD09EC150C00B0F09C16E1C
:10001000070EB46EC69A949A94889496310EC66E62
:10002000400EC76E000E936EC29093908A80939498
:100030008A9493928A8293908A90070E006E002E83
:10004000FED700D00000C950070EC96EC730FEE3CE
:10005000C9507F0EC96EC730FEE3C950800EC96E0D
:10006000C730FEE393908A8093948A94939A8A8A05
:04007000DCD70300D6
:020000040030CA
:0E00000000C21F1E008581000FC00FE00F40E0
:00000001FF
;PIC18F2520
;CRC=9AC1  CREATED="26-oct-16 16:42"
