:1000000027EF01F00A0A0A0D00002A2A2A2A2A2AC2
:100010002A2A2A2A4553504552414E444F20434FE5
:100020004D414E444F2A2A2A2A2A2A2A2A2A0A0DD0
:100030000000456E74726520616C20666F723A2014
:100040002564200A0D0053697A65206F6620636F6E
:100050006D616E646F3A202564200A0D0000456CC6
:1000600020636F6D616E646F20257320657320655A
:1000700072726F6E656F200A0D0054616D61F16FD1
:1000800020636F6D616E646F3A202564200A0D0055
:10009000EA6A0F0EE96EEF500DE0060E016E006A7F
:1000A000002EFED7012EFBD77B0E006E002EFED752
:1000B000EF2EF3D712000900F5520DE0F6CF0EF047
:1000C000F7CF0FF0F5509EA8FED7AD6E0EC0F6FF2D
:1000D0000FC0F7FFF0D712000FC011F00EC010F0E4
:1000E00011C003F010C0E9FF11C0EAFFEF5204E0B5
:1000F000102AD8B4112AF4D70E50105C006E0F509D
:100100001158036E00C001F064EF01F0EF5210E0EF
:10011000EACF0FF0E9CF0EF0EF509EA8FED7AD6EFC
:100120000FC0EAFF0EC0E9FFE92AD8B4EA2AEED7E9
:1001300012009294898492968986020E0E6EFA0EAF
:100140000F6EA6DF0E2EFBD7929489949296899615
:100150007AEF01F00900F6CF0FF0F7CF10F0F5506D
:100160009EA8FED7AD6E0FC0F6FF10C0F7FF0E2E93
:10017000F1D712001550016A145C03E214C000F0BC
:100180000CD0006A080E166E143600361550005C4E
:10019000D8B0006E0136162EF7D71200200E0FA829
:1001A000300E106E0EC000F00EAE08D0001E002AF9
:1001B00000C00EF02D0E106E0F8E0F8001500EC07D
:1001C00014F0640E156ED6DF00C00EF0300E012460
:1001D000116E0EC014F00A0E156ECCDF300E002426
:1001E000136E300E0124126E10C000F0300E115C40
:1001F00004E00F820FBE0F8412D010C011F0200E49
:10020000106E300E125C04E00F800FBE0F8207D01C
:10021000D8A40F8004E111C012F0200E116E0FB4AB
:1002200005D00FB207D00FB009D00CD010509EA847
:10023000FED7AD6E11509EA8FED7AD6E12509EA88F
:10024000FED7AD6E13509EA8FED7AD6E1200F86AB1
:10025000D09EB886080EAF6E020EB06EA60EAC6EC3
:10026000900EAB6E00000000C150C00B0F09C16EB4
:10027000070EB46E046A056A066A94928B82939A9A
:100280008A8A020E0E6EFA0E0F6E02DF0E2EFBD75A
:10029000040EF66E000EF76E0EDF0A0EF66E000EFE
:1002A000F76E09DF94928B92EA6A080EE96EE9060E
:1002B0009EAAFED7AECFECFF0D0EEF5CF9E1EC6A23
:1002C0000F6A080E0E6E08D701C007F008504708E5
:1002D0003AE10950520837E10750050834E1949299
:1002E0008B82066A065005082DE3EA6A080EE96E5D
:1002F0000DDF1FD7320EF66E000EF76E0E0E0E6E6D
:1003000029DF06C00EF0180E0F6E48DF420EF66EA3
:10031000000EF76E030E0E6E1DDF460EF66E000E1B
:10032000F76E110E0E6E16DF07C00EF0180E0F6E70
:1003300035DF590EF66E000EF76E030E0E6E0ADFF5
:10034000062AD0D727D094928B825E0EF66E000ECE
:10035000F76E0B0E0E6EFEDEEA6A080EE96ED6DE52
:100360006B0EF66E000EF76E0E0E0E6EF3DE7A0E4C
:10037000F66E000EF76E100E0E6EECDE07C00EF07D
:10038000180E0F6E0BDF8C0EF66E000EF76E030E5E
:100390000E6EE0DE020E0E6EFA0E0F6E79DE0E2E7F
:0603A000FBD76BD7030040
:020000040030CA
:0E00000000C21F1E008781000FC00FE00F40DE
:00000001FF
;PIC18F2520
;CRC=F45A  CREATED="28-oct-16 17:47"
