:10000000F7EF00F02A2A2A2A2A2A2A2A2A2A2A2A22
:100010002A2A2A2A2A2A2A2A2A2A2A2A2A2A2A2A40
:100020002A2A2A2A2A2A0000202052533233322038
:1000300064656D6F207769746820434353204320C3
:10004000636F6D70696C6572202000002A2A2A2A6D
:100050002A2A2A2A2A2A2A2A2A2A2A2A2A2A2A2A00
:100060002A2A2A2A2A2A2A2A2A2A2A2A2A2A0A0D2D
:100070000000446563696D616C207661726961623C
:100080006C65206F75747075743A2025640A0D00D4
:10009000456E74726520616C20666F723A2025642B
:1000A000200A0D00EA6A090EE96EEF500DE0060E17
:1000B000016E006A002EFED7012EFBD77B0E006E6C
:1000C000002EFED7EF2EF3D712000900F5520DE0F7
:1000D000F6CF08F0F7CF09F0F5509EA8FED7AD6E29
:1000E00008C0F6FF09C0F7FFF0D712000900F6CFED
:1000F00009F0F7CF0AF0F5509EA8FED7AD6E09C003
:10010000F6FF0AC0F7FF082EF1D712000F50016A60
:100110000E5C03E20EC000F00CD0006A080E106EF8
:100120000E3600360F50005CD8B0006E0136102E2F
:10013000F7D71200200E09A8300E0A6E08C000F092
:1001400008AE08D0001E002A00C008F02D0E0A6E6E
:10015000098E0980015008C00EF0640E0F6ED6DFC4
:1001600000C008F0300E01240B6E08C00EF00A0E1D
:100170000F6ECCDF300E00240D6E300E01240C6E9D
:100180000AC000F0300E0B5C04E0098209BE09844D
:1001900012D00AC00BF0200E0A6E300E0C5C04E088
:1001A000098009BE098207D0D8A4098004E10BC0E8
:1001B0000CF0200E0B6E09B405D009B207D009B0BF
:1001C00009D00CD00A509EA8FED7AD6E0B509EA849
:1001D000FED7AD6E0C509EA8FED7AD6E0D509EA8FA
:1001E000FED7AD6E12009EA8FED7AD6E1200F86A63
:1001F000D09EB886080EAF6E020EB06EA60EAC6E24
:10020000900EAB6E00000000C150C00B0F09C16E14
:10021000070EB46E550E056E066AC29094928B82DC
:10022000939A8A9A020E086EFA0E096E3BDF082E28
:10023000FBD7040EF66E000EF76E47DF0D0E9EA87C
:10024000FED7AD6E0A0E9EA8FED7AD6E280EF66ED6
:10025000000EF76E3ADF0D0E9EA8FED7AD6E0A0EA9
:100260009EA8FED7AD6E4C0EF66E000EF76E2DDF1B
:100270000D0E9EA8FED7AD6E0A0E9EA8FED7AD6EDF
:10028000720EF66E000EF76E190E086E2FDF05C0A7
:1002900008F0180E096E4EDF0A0E9EA8FED7AD6E4E
:1002A0000D0E9EA8FED7AD6E0A0E9EA8FED7AD6EAF
:1002B0000D0E9EA8FED7AD6E94928B929EAAFED78D
:1002C000AECF07F094928B82939A8A8A040E086EBE
:1002D000FA0E096EE7DE082EFBD70750650828E105
:1002E000066A0650050824E39294898492968986CA
:1002F000020E086EFA0E096ED5DE082EFBD7929418
:10030000899492968996900EF66E000EF76E0E0EF8
:10031000086EECDE06C008F0180E096E0BDFA00EAA
:10032000F66E000EF76E030E086EE0DE062AD9D7D1
:100330000A0E59DF0D0E57DF020E086EFA0E096E17
:0A034000B1DE082EFBD76AD70300D8
:020000040030CA
:0E00000000C21F1E008781000FC00FE00F40DE
:00000001FF
;PIC18F2520
;CRC=A65E  CREATED="21-oct-16 16:26"
