:1000000016EF00F0EA6A050EE96EEF500DE0060EFD
:10001000016E006A002EFED7012EFBD77B0E006E0C
:10002000002EFED7EF2EF3D73CEF00F0F86AD09EFB
:10003000C150C00B0F09C16E070EB46EC69A949AD8
:1000400094889496310EC66E400EC76E93988A9827
:10005000C950240EC96EC730FEE3C950F10EC96EF7
:10006000C730FEE3C9501F0EC96EC730FEE3939838
:0C0070008A88010E056EC6D7E9D7030090
:020000040030CA
:0E00000000C21F1E008781000FC00FE00F40DE
:00000001FF
;PIC18F2520
;CRC=B9D4  CREATED="25-oct-16 11:31"
