:0400000095EF00F088
:08000800046ED8CF05F0E0CF33
:1000100006F00001E9CF0CF0EACF07F0E1CF08F0DD
:10002000E2CF09F0D9CF0AF0DACF0BF0F3CF12F01C
:10003000F4CF13F0FACF14F000C00EF001C00FF0AF
:1000400002C010F003C011F09DAA2AEF00F09EBA82
:100050005AEF00F00EC000F00FC001F010C002F027
:1000600011C003F00CC0E9FF07C0EAFF078E08C00B
:10007000E1FF09C0E2FF0AC0D9FF0BC0DAFF12C0DE
:10008000F3FF13C0F4FF14C0FAFF045006C0E0FFF2
:1000900005C0D8FF10009EAAFED7ABCF16F0AECF9A
:1000A00001F016A202D0AB98AB8812009EA8FED732
:1000B000AD6E120094928B92EEDF01C017F01750D4
:1000C000410802E1010E1B6E1B2C08D0E4DF01C0C9
:1000D00018F01850330802E1020E1B6E1B50020884
:1000E00008E1D9DF01C019F01950430802E1030EFD
:1000F0001B6E1B50030808E1CEDF01C01AF01A5036
:10010000440802E1040E1B6E1B5004080AE194929D
:100110008B821750CBDF1850C9DF1950C7DF1A5038
:10012000C5DF1B6A9E9A2AEF00F0F86AD09E078E00
:10013000166AB886080EAF6E020EB06EA60EAC6ED2
:10014000900EAB6E00000000C150C00B0F09C16ED5
:10015000070EB46EC290C00EF2129D8AFFD7030044
:020000040030CA
:0E00000000C21F1E008781000FC00FE00F40DE
:00000001FF
;PIC18F2520
;CRC=F24D  CREATED="21-oct-16 16:22"
