:1000000070EF02F04669726D7761726520766572F5
:1000100073696F6E206973202534580D0A00436F91
:100020006D70696C6564206F6E202573207769742C
:100030006820636F6D70696C657220766572736994
:100040006F6E2025730D0A0031392D6F63742D31C9
:100050003600352E303035000D0A0A0A0A00496E86
:1000600074726F6475636520756E206E756D657250
:100070006F20792070756C736120656E7465723ABB
:100080002000456C206E756D65726F20696E74720C
:100090006F64756369646F20657320656C20756E8D
:1000A0006F0D0000456C203120657320756E206E49
:1000B000756D65726F20656E7465726F0D00456CAD
:1000C000206E756D65726F20696E74726F647563F2
:1000D00069646F20657320656C20646F730D000088
:1000E000456C203220657320756E206E756D6572CB
:1000F0006F20656E7465726F0D00536F6C6F2065B5
:100100007374616E20646566696E69646F732065DF
:100110006C2031207920656C20320D0045736520FC
:100120006E756D65726F206E6F20657374612064EB
:100130006566696E69646F0D0000457374652065BE
:100140006A656D706C6F206D756573747261722075
:10015000656C2075736F206465206C612073656E1B
:1001600074656E6369612073776974636800090060
:10017000F6CF33F0F7CF34F0F5509EA8FED7AD6E32
:1001800033C0F6FF34C0F7FF322EF1D7120033BE72
:1001900010D00F0E006E323800160A0E005C03E21B
:1001A000300E002602D03350002600509EA8FED705
:1001B000AD6E0F0E32160A0E325C02E2300E02D025
:1001C000339E3350322632509EA8FED7AD6EB7EF25
:1001D00002F00900F5520DE0F6CF32F0F7CF33F020
:1001E000F5509EA8FED7AD6E32C0F6FF33C0F7FFC4
:1001F000F0D71200EF5210E0EACF33F0E9CF32F03F
:10020000EF509EA8FED7AD6E33C0EAFF32C0E9FFC3
:10021000E92AD8B4EA2AEED7F9EF02F03E504018A6
:10022000800B426E3EAE05D03D1E3E1E3D2AD8B428
:100230003E2A40AE05D03F1E401E3F2AD8B4402A79
:100240003D503F02F3CF01F0F4CF00F04002F350F5
:1002500000263E503F02F3500020026E42AE05D011
:10026000011E021E012AD8B4022AC3EF01F03B6A24
:100270003A6A376A366A396A0A0E386E356A346AFB
:100280003250331004E1000E016E026E13D13BC0F8
:1002900003F03A503A2AD8B43B2A3D6E32503D24FE
:1002A000E96E33500320EA6EEFCF3CF03C502D084E
:1002B00013E1376A010E366E3BC003F03A503A2A1A
:1002C000D8B43B2A3D6E32503D24E96E33500320B2
:1002D000EA6EEFCF3CF012D03C502B080FE13BC050
:1002E00003F03A503A2AD8B43B2A3D6E32503D24AE
:1002F000E96E33500320EA6EEFCF3CF03C502F08FC
:10030000D8B0C6D03C503908D8A0C2D03C50300834
:1003100027E132503A24E96E33503B20EA6EEF5029
:10032000780809E032503A24E96E33503B20EA6EF7
:10033000EF50580815E1396A100E386E3A2AD8B4D1
:100340003B2A3BC003F03A503A2AD8B43B2A3D6ED0
:1003500032503D24E96E33500320EA6EEFCF3CF07B
:1003600038500A082AE1395228E13C502F0824E28B
:100370003C50390821E33E6A0A0E3D6E35C040F01C
:1003800034C03FF04BD7300E3C5C0124346E000E7D
:100390000220356E3BC003F03A503A2AD8B43B2ACB
:1003A0003D6E03C03EF032503D24E96E33500320D1
:1003B000EA6EEFCF3CF0D9D76BD038501008D8A4F4
:1003C00067D0395265E13C50600806E23C507A083B
:1003D00003E33C50DF0B01D03C503C6E3C502F08F7
:1003E00003E23C50390806E23C50400851E23C50E0
:1003F00046084EE33C502F081AE23C50390817E3F8
:1004000034343D6E35343E6E3D363E363D363E36F6
:100410003D363E36F00E3D16300E3C5C3D24016EFE
:10042000000E3E20036E01C034F0356E16D0343419
:100430003D6E35343E6E3D363E363D363E363D36BB
:100440003E36F00E3D16410E3C5C0A0F3D24016E17
:10045000000E3E2001C034F0356E3BC003F03A5030
:100460003A2AD8B43B2A3D6E32503D24E96E3350CF
:100470000320EA6EEFCF3CF03C50600806E23C50AF
:100480007A0803E33C50DF0B01D03C503C6EA6D70A
:10049000362C0CD037520AE138500A0807E139529D
:1004A00005E1341E351E342AD8B4352A34C001F093
:1004B00035C002F001EF03F0EA6A330EE96EEF5047
:1004C0000DE0060E016E006A002EFED7012EFBD74E
:1004D0007B0E006E002EFED7EF2EF3D743EF03F016
:1004E000F86AD09E1E0E006E010E016E020EE96EBD
:1004F000000EEA6EEE6A002EFDD7012EFBD7D00E5D
:10050000006E060E016E300EE96E000EEA6EEE6AA7
:10051000002EFDD7012EFBD7B886080EAF6E020E57
:10052000B06EA60EAC6E900EAB6E00000000C15017
:10053000C00B0F09C16E070EB46E046A056A939072
:100540008A9093928A92040EF66E000EF76E140E45
:10055000326E0DDE020E326E300E9EA8FED7AD6EEC
:10056000322EFAD7010E326E370E336E10D60D0EC4
:100570009EA8FED7AD6E0A0E9EA8FED7AD6E1E0ECB
:10058000F66E000EF76E0C0E326EF1DD480EF66E52
:10059000000EF76E1EDE2C0EF66E000EF76E170EB6
:1005A000326EE5DD520EF66E000EF76E12DE0D0EA7
:1005B0009EA8FED7AD6E0A0E9EA8FED7AD6E580E51
:1005C000F66E000EF76E05DE5E0EF66E000EF76E2E
:1005D00000DEEA6A0C0EE96EE9069EAAFED7AECFEF
:1005E000ECFF0D0EEF5CF9E1EC6AEA6A0C0EE96EC5
:1005F00001D60D0E9EA8FED7AD6E336A0C0E326E7C
:1006000036D602C031F001C030F030C000F03150B9
:10061000036E03E1010E005C0BE0035003E1020EE8
:10062000005C11E0035003E1030E005C17E01CD0F6
:10063000820EF66E000EF76ECCDDA40EF66E000E86
:10064000F76EC7DD16D0BE0EF66E000EF76EC1DD7A
:10065000E00EF66E000EF76EBCDD0BD0FA0EF66EF5
:10066000000EF76EB6DD05D01C0EF66E010EF76EAD
:10067000B0DD3A0EF66E010EF76EABDD040E326E93
:0E068000FA0E336E19D7322EFBD75DD703006A
:020000040030CA
:0E00000000C21E1E008781000FC00FE00F40DF
:020000040020DA
:080000000000000000000100F7
:00000001FF
;PIC18F2520
;CRC=B974  CREATED="19-oct-16 11:01"
